{
  "contractName": "Identity",
  "abi": [
    {
      "inputs": [],
      "name": "merkleRoot",
      "outputs": [
        {
          "internalType": "bytes32",
          "name": "",
          "type": "bytes32"
        }
      ],
      "stateMutability": "view",
      "type": "function"
    },
    {
      "inputs": [],
      "name": "getMerkleRoot",
      "outputs": [
        {
          "internalType": "bytes32",
          "name": "",
          "type": "bytes32"
        }
      ],
      "stateMutability": "view",
      "type": "function"
    },
    {
      "inputs": [
        {
          "internalType": "bytes32",
          "name": "newMerkleRoot",
          "type": "bytes32"
        }
      ],
      "name": "setMerkleRoot",
      "outputs": [],
      "stateMutability": "nonpayable",
      "type": "function"
    },
    {
      "inputs": [
        {
          "internalType": "bytes32[][]",
          "name": "proof",
          "type": "bytes32[][]"
        },
        {
          "internalType": "bytes32[]",
          "name": "leaves",
          "type": "bytes32[]"
        }
      ],
      "name": "verifyOneInAll",
      "outputs": [
        {
          "internalType": "bool",
          "name": "",
          "type": "bool"
        }
      ],
      "stateMutability": "view",
      "type": "function"
    },
    {
      "inputs": [
        {
          "internalType": "bytes32[][]",
          "name": "proof",
          "type": "bytes32[][]"
        },
        {
          "internalType": "bytes32[]",
          "name": "leaves",
          "type": "bytes32[]"
        }
      ],
      "name": "verifyAll",
      "outputs": [
        {
          "internalType": "bool",
          "name": "",
          "type": "bool"
        }
      ],
      "stateMutability": "view",
      "type": "function"
    }
  ],
  "bytecode": "0x608060405234801561001057600080fd5b506106e4806100206000396000f3fe608060405234801561001057600080fd5b50600436106100575760003560e01c80632eb4a7ab1461005c578063495906571461007a5780635ac8252e14610098578063776c80c4146100c85780637cb64759146100f8575b600080fd5b610064610114565b604051610071919061039c565b60405180910390f35b61008261011a565b60405161008f919061039c565b60405180910390f35b6100b260048036038101906100ad919061047c565b610123565b6040516100bf9190610518565b60405180910390f35b6100e260048036038101906100dd919061047c565b6101f6565b6040516100ef9190610518565b60405180910390f35b610112600480360381019061010d919061055f565b6102ca565b005b60005481565b60008054905090565b600080600090505b838390508110156101e85760006101c287878481811061014e5761014d61058c565b5b905060200281019061016091906105ca565b80806020026020016040519081016040528093929190818152602001838360200280828437600081840152601f19601f820116905080830192505050505050506000548787868181106101b6576101b561058c565b5b905060200201356102d4565b9050806101d4576000925050506101ee565b5080806101e090610666565b91505061012b565b50600190505b949350505050565b600080600090505b838390508110156102bc5760006102958787848181106102215761022061058c565b5b905060200281019061023391906105ca565b80806020026020016040519081016040528093929190818152602001838360200280828437600081840152601f19601f820116905080830192505050505050506000548787868181106102895761028861058c565b5b905060200201356102d4565b905080156102a8576001925050506102c2565b5080806102b490610666565b9150506101fe565b50600090505b949350505050565b8060008190555050565b6000826102e185846102eb565b1490509392505050565b60008082905060005b845181101561033657610321828683815181106103145761031361058c565b5b6020026020010151610341565b9150808061032e90610666565b9150506102f4565b508091505092915050565b600081831061035957610354828461036c565b610364565b610363838361036c565b5b905092915050565b600082600052816020526040600020905092915050565b6000819050919050565b61039681610383565b82525050565b60006020820190506103b1600083018461038d565b92915050565b600080fd5b600080fd5b600080fd5b600080fd5b600080fd5b60008083601f8401126103e6576103e56103c1565b5b8235905067ffffffffffffffff811115610403576104026103c6565b5b60208301915083602082028301111561041f5761041e6103cb565b5b9250929050565b60008083601f84011261043c5761043b6103c1565b5b8235905067ffffffffffffffff811115610459576104586103c6565b5b602083019150836020820283011115610475576104746103cb565b5b9250929050565b60008060008060408587031215610496576104956103b7565b5b600085013567ffffffffffffffff8111156104b4576104b36103bc565b5b6104c0878288016103d0565b9450945050602085013567ffffffffffffffff8111156104e3576104e26103bc565b5b6104ef87828801610426565b925092505092959194509250565b60008115159050919050565b610512816104fd565b82525050565b600060208201905061052d6000830184610509565b92915050565b61053c81610383565b811461054757600080fd5b50565b60008135905061055981610533565b92915050565b600060208284031215610575576105746103b7565b5b60006105838482850161054a565b91505092915050565b7f4e487b7100000000000000000000000000000000000000000000000000000000600052603260045260246000fd5b600080fd5b600080fd5b600080fd5b600080833560016020038436030381126105e7576105e66105bb565b5b80840192508235915067ffffffffffffffff821115610609576106086105c0565b5b602083019250602082023603831315610625576106246105c5565b5b509250929050565b7f4e487b7100000000000000000000000000000000000000000000000000000000600052601160045260246000fd5b6000819050919050565b60006106718261065c565b91507fffffffffffffffffffffffffffffffffffffffffffffffffffffffffffffffff82036106a3576106a261062d565b5b60018201905091905056fea26469706673582212205fa59160254a0be79e6e73e31bc62d53e39c8013b786ffb86404725970d09f9b64736f6c63430008110033",
  "immutableReferences": {},
  "source": "// SPDX-License-Identifier: MIT\npragma solidity 0.8.17;\nimport \"@openzeppelin/contracts/utils/cryptography/MerkleProof.sol\";\n\n\ncontract Identity {\n    bytes32 public merkleRoot;\n\n    function getMerkleRoot() public view returns(bytes32){\n        return merkleRoot;\n    }\n\n    function setMerkleRoot(bytes32 newMerkleRoot) public {\n        merkleRoot = newMerkleRoot;\n    }\n\n    function verifyOneInAll(bytes32[][] calldata proof, bytes32[] calldata leaves) public view returns(bool){\n        for (uint i = 0; i<leaves.length; i++) {\n            bool tmp = MerkleProof.verify(proof[i],merkleRoot, leaves[i]);\n            if (tmp)\n                return true;\n        }\n        return false;\n    }\n\n    function verifyAll(bytes32[][] calldata proof, bytes32[] calldata leaves)public view returns(bool){\n        for (uint i = 0; i<leaves.length; i++) {\n            bool tmp = MerkleProof.verify(proof[i],merkleRoot, leaves[i]);\n            if (!tmp)\n                return false;\n        }\n        return true;\n    }\n}",
  "sourcePath": "/home/khoi/Desktop/test_truffle/contracts/Identity.sol",
  "compiler": {
    "name": "solc",
    "version": "0.8.17+commit.8df45f5f.Emscripten.clang"
  },
  "schemaVersion": "3.4.11",
  "updatedAt": "2022-12-08T04:11:35.996Z",
  "devdoc": {
    "kind": "dev",
    "methods": {},
    "version": 1
  },
  "userdoc": {
    "kind": "user",
    "methods": {},
    "version": 1
  }
}